{
  "contractName": "Bank",
  "abi": [
    {
      "anonymous": false,
      "inputs": [
        {
          "indexed": false,
          "internalType": "address",
          "name": "sender",
          "type": "address"
        },
        {
          "indexed": false,
          "internalType": "address",
          "name": "receiver",
          "type": "address"
        },
        {
          "indexed": false,
          "internalType": "uint256",
          "name": "value",
          "type": "uint256"
        }
      ],
      "name": "NewTransaction",
      "type": "event"
    },
    {
      "constant": false,
      "inputs": [
        {
          "internalType": "uint256",
          "name": "_date",
          "type": "uint256"
        },
        {
          "internalType": "uint256",
          "name": "_value",
          "type": "uint256"
        },
        {
          "internalType": "string",
          "name": "_message",
          "type": "string"
        }
      ],
      "name": "createFreezeTranaction",
      "outputs": [],
      "payable": false,
      "stateMutability": "nonpayable",
      "type": "function"
    },
    {
      "constant": false,
      "inputs": [
        {
          "internalType": "uint256",
          "name": "_index",
          "type": "uint256"
        }
      ],
      "name": "finishFreezeTransaction",
      "outputs": [],
      "payable": false,
      "stateMutability": "nonpayable",
      "type": "function"
    },
    {
      "constant": true,
      "inputs": [],
      "name": "getNextEmptyFreezeTransactionIndex",
      "outputs": [
        {
          "internalType": "uint256",
          "name": "",
          "type": "uint256"
        }
      ],
      "payable": false,
      "stateMutability": "view",
      "type": "function"
    },
    {
      "constant": true,
      "inputs": [
        {
          "internalType": "uint256",
          "name": "_index",
          "type": "uint256"
        }
      ],
      "name": "getFreezedTransactionOccupied",
      "outputs": [
        {
          "internalType": "uint256",
          "name": "",
          "type": "uint256"
        }
      ],
      "payable": false,
      "stateMutability": "view",
      "type": "function"
    },
    {
      "constant": true,
      "inputs": [],
      "name": "allFreezedTransactionsOccupied",
      "outputs": [
        {
          "internalType": "bool",
          "name": "",
          "type": "bool"
        }
      ],
      "payable": false,
      "stateMutability": "view",
      "type": "function"
    },
    {
      "constant": true,
      "inputs": [
        {
          "internalType": "uint256",
          "name": "_position",
          "type": "uint256"
        }
      ],
      "name": "getFreezeTransaction",
      "outputs": [
        {
          "internalType": "uint256",
          "name": "",
          "type": "uint256"
        },
        {
          "internalType": "uint256",
          "name": "",
          "type": "uint256"
        },
        {
          "internalType": "string",
          "name": "",
          "type": "string"
        }
      ],
      "payable": false,
      "stateMutability": "view",
      "type": "function"
    },
    {
      "constant": false,
      "inputs": [],
      "name": "deposit",
      "outputs": [],
      "payable": true,
      "stateMutability": "payable",
      "type": "function"
    },
    {
      "constant": false,
      "inputs": [
        {
          "internalType": "uint256",
          "name": "_value",
          "type": "uint256"
        }
      ],
      "name": "withdraw",
      "outputs": [],
      "payable": false,
      "stateMutability": "nonpayable",
      "type": "function"
    },
    {
      "constant": false,
      "inputs": [
        {
          "internalType": "address",
          "name": "_address",
          "type": "address"
        },
        {
          "internalType": "uint256",
          "name": "_value",
          "type": "uint256"
        }
      ],
      "name": "sendMoney",
      "outputs": [],
      "payable": false,
      "stateMutability": "nonpayable",
      "type": "function"
    },
    {
      "constant": true,
      "inputs": [],
      "name": "getOwnBalance",
      "outputs": [
        {
          "internalType": "uint256",
          "name": "",
          "type": "uint256"
        }
      ],
      "payable": false,
      "stateMutability": "view",
      "type": "function"
    },
    {
      "constant": true,
      "inputs": [],
      "name": "getLastReceivedTransaction",
      "outputs": [
        {
          "internalType": "address",
          "name": "",
          "type": "address"
        },
        {
          "internalType": "uint256",
          "name": "",
          "type": "uint256"
        },
        {
          "internalType": "uint256",
          "name": "",
          "type": "uint256"
        }
      ],
      "payable": false,
      "stateMutability": "view",
      "type": "function"
    },
    {
      "constant": true,
      "inputs": [],
      "name": "getLastSendTransaction",
      "outputs": [
        {
          "internalType": "address",
          "name": "",
          "type": "address"
        },
        {
          "internalType": "uint256",
          "name": "",
          "type": "uint256"
        },
        {
          "internalType": "uint256",
          "name": "",
          "type": "uint256"
        }
      ],
      "payable": false,
      "stateMutability": "view",
      "type": "function"
    },
    {
      "constant": false,
      "inputs": [
        {
          "internalType": "string",
          "name": "_message",
          "type": "string"
        },
        {
          "internalType": "address",
          "name": "_address",
          "type": "address"
        }
      ],
      "name": "sendMessage",
      "outputs": [],
      "payable": false,
      "stateMutability": "nonpayable",
      "type": "function"
    },
    {
      "constant": true,
      "inputs": [
        {
          "internalType": "uint256",
          "name": "_position",
          "type": "uint256"
        }
      ],
      "name": "getSendMessages",
      "outputs": [
        {
          "internalType": "address",
          "name": "",
          "type": "address"
        },
        {
          "internalType": "string",
          "name": "",
          "type": "string"
        },
        {
          "internalType": "uint256",
          "name": "",
          "type": "uint256"
        }
      ],
      "payable": false,
      "stateMutability": "view",
      "type": "function"
    },
    {
      "constant": true,
      "inputs": [
        {
          "internalType": "uint256",
          "name": "_position",
          "type": "uint256"
        }
      ],
      "name": "getReceivedMessages",
      "outputs": [
        {
          "internalType": "address",
          "name": "",
          "type": "address"
        },
        {
          "internalType": "string",
          "name": "",
          "type": "string"
        },
        {
          "internalType": "uint256",
          "name": "",
          "type": "uint256"
        }
      ],
      "payable": false,
      "stateMutability": "view",
      "type": "function"
    },
    {
      "constant": true,
      "inputs": [],
      "name": "getOwnFreezeContractEnd",
      "outputs": [
        {
          "internalType": "uint256",
          "name": "",
          "type": "uint256"
        }
      ],
      "payable": false,
      "stateMutability": "view",
      "type": "function"
    },
    {
      "constant": false,
      "inputs": [
        {
          "internalType": "uint256",
          "name": "_timeToFreeze",
          "type": "uint256"
        }
      ],
      "name": "freezeContract",
      "outputs": [],
      "payable": false,
      "stateMutability": "nonpayable",
      "type": "function"
    },
    {
      "constant": true,
      "inputs": [],
      "name": "getCurrentTime",
      "outputs": [
        {
          "internalType": "uint256",
          "name": "",
          "type": "uint256"
        }
      ],
      "payable": false,
      "stateMutability": "view",
      "type": "function"
    }
  ],
  "bytecode": "0x608060405234801561001057600080fd5b5061220e806100206000396000f3fe6080604052600436106101095760003560e01c80637130474e11610095578063adb3b3d411610064578063adb3b3d414610606578063c48d6d5e146106c8578063c84349cc146107b0578063d0e30db014610815578063ee4ae2c91461081f57610109565b80637130474e1461046f578063902f4b451461049a578063970632eb146104e95780639912a6bd1461051857610109565b80633bde0462116100dc5780633bde04621461028b5780634a43d791146102b65780635fe1a5511461031b5780636b1b40dc146104095780636bc3c7f71461043457610109565b8063147956071461010e578063286ddb68146101ea57806329cb924d146102255780632e1a7d4d14610250575b600080fd5b34801561011a57600080fd5b506101e86004803603606081101561013157600080fd5b8101908080359060200190929190803590602001909291908035906020019064010000000081111561016257600080fd5b82018360208201111561017457600080fd5b8035906020019184600183028401116401000000008311171561019657600080fd5b91908080601f016020809104026020016040519081016040528093929190818152602001838380828437600081840152601f19601f82011690508083019250505050505050919291929050505061087a565b005b3480156101f657600080fd5b506102236004803603602081101561020d57600080fd5b8101908080359060200190929190505050610a5d565b005b34801561023157600080fd5b5061023a610af2565b6040518082815260200191505060405180910390f35b34801561025c57600080fd5b506102896004803603602081101561027357600080fd5b8101908080359060200190929190505050610afa565b005b34801561029757600080fd5b506102a0610c29565b6040518082815260200191505060405180910390f35b3480156102c257600080fd5b506102cb610ca9565b604051808473ffffffffffffffffffffffffffffffffffffffff1673ffffffffffffffffffffffffffffffffffffffff168152602001838152602001828152602001935050505060405180910390f35b34801561032757600080fd5b506103546004803603602081101561033e57600080fd5b8101908080359060200190929190505050610da2565b604051808473ffffffffffffffffffffffffffffffffffffffff1673ffffffffffffffffffffffffffffffffffffffff16815260200180602001838152602001828103825284818151815260200191508051906020019080838360005b838110156103cc5780820151818401526020810190506103b1565b50505050905090810190601f1680156103f95780820380516001836020036101000a031916815260200191505b5094505050505060405180910390f35b34801561041557600080fd5b5061041e610f80565b6040518082815260200191505060405180910390f35b34801561044057600080fd5b5061046d6004803603602081101561045757600080fd5b8101908080359060200190929190505050610fc7565b005b34801561047b57600080fd5b50610484611224565b6040518082815260200191505060405180910390f35b3480156104a657600080fd5b506104d3600480360360208110156104bd57600080fd5b810190808035906020019092919050505061126b565b6040518082815260200191505060405180910390f35b3480156104f557600080fd5b506104fe6112c0565b604051808215151515815260200191505060405180910390f35b34801561052457600080fd5b506105516004803603602081101561053b57600080fd5b8101908080359060200190929190505050611302565b604051808473ffffffffffffffffffffffffffffffffffffffff1673ffffffffffffffffffffffffffffffffffffffff16815260200180602001838152602001828103825284818151815260200191508051906020019080838360005b838110156105c95780820151818401526020810190506105ae565b50505050905090810190601f1680156105f65780820380516001836020036101000a031916815260200191505b5094505050505060405180910390f35b34801561061257600080fd5b5061063f6004803603602081101561062957600080fd5b81019080803590602001909291905050506114e0565b6040518084815260200183815260200180602001828103825283818151815260200191508051906020019080838360005b8381101561068b578082015181840152602081019050610670565b50505050905090810190601f1680156106b85780820380516001836020036101000a031916815260200191505b5094505050505060405180910390f35b3480156106d457600080fd5b506107ae600480360360408110156106eb57600080fd5b810190808035906020019064010000000081111561070857600080fd5b82018360208201111561071a57600080fd5b8035906020019184600183028401116401000000008311171561073c57600080fd5b91908080601f016020809104026020016040519081016040528093929190818152602001838380828437600081840152601f19601f820116905080830192505050505050509192919290803573ffffffffffffffffffffffffffffffffffffffff16906020019092919050505061169b565b005b3480156107bc57600080fd5b506107c5611a81565b604051808473ffffffffffffffffffffffffffffffffffffffff1673ffffffffffffffffffffffffffffffffffffffff168152602001838152602001828152602001935050505060405180910390f35b61081d611b7a565b005b34801561082b57600080fd5b506108786004803603604081101561084257600080fd5b81019080803573ffffffffffffffffffffffffffffffffffffffff16906020019092919080359060200190929190505050611c22565b005b81600260003373ffffffffffffffffffffffffffffffffffffffff1673ffffffffffffffffffffffffffffffffffffffff1681526020019081526020016000205410156108c657600080fd5b42600960003373ffffffffffffffffffffffffffffffffffffffff1673ffffffffffffffffffffffffffffffffffffffff16815260200190815260200160002054111561091257600080fd5b81600260003373ffffffffffffffffffffffffffffffffffffffff1673ffffffffffffffffffffffffffffffffffffffff168152602001908152602001600020600082825403925050819055506000610969610c29565b90506040518060600160405280858152602001848152602001838152506000803373ffffffffffffffffffffffffffffffffffffffff1673ffffffffffffffffffffffffffffffffffffffff16815260200190815260200160002082600581106109cf57fe5b6003020160008201518160000155602082015181600101556040820151816002019080519060200190610a0392919061200c565b5090505060018060003373ffffffffffffffffffffffffffffffffffffffff1673ffffffffffffffffffffffffffffffffffffffff1681526020019081526020016000208260058110610a5257fe5b018190555050505050565b6000600260003373ffffffffffffffffffffffffffffffffffffffff1673ffffffffffffffffffffffffffffffffffffffff1681526020019081526020016000205411610aa957600080fd5b804201600960003373ffffffffffffffffffffffffffffffffffffffff1673ffffffffffffffffffffffffffffffffffffffff1681526020019081526020016000208190555050565b600042905090565b80600260003373ffffffffffffffffffffffffffffffffffffffff1673ffffffffffffffffffffffffffffffffffffffff168152602001908152602001600020541015610b4657600080fd5b42600960003373ffffffffffffffffffffffffffffffffffffffff1673ffffffffffffffffffffffffffffffffffffffff168152602001908152602001600020541115610b9257600080fd5b3373ffffffffffffffffffffffffffffffffffffffff166108fc829081150290604051600060405180830381858888f19350505050158015610bd8573d6000803e3d6000fd5b5080600260003373ffffffffffffffffffffffffffffffffffffffff1673ffffffffffffffffffffffffffffffffffffffff1681526020019081526020016000206000828254039250508190555050565b600080600090505b6005811015610ca4576000600160003373ffffffffffffffffffffffffffffffffffffffff1673ffffffffffffffffffffffffffffffffffffffff1681526020019081526020016000208260058110610c8657fe5b01541415610c975780915050610ca6565b8080600101915050610c31565b505b90565b6000806000600360003373ffffffffffffffffffffffffffffffffffffffff1673ffffffffffffffffffffffffffffffffffffffff16815260200190815260200160002060000160009054906101000a900473ffffffffffffffffffffffffffffffffffffffff16600360003373ffffffffffffffffffffffffffffffffffffffff1673ffffffffffffffffffffffffffffffffffffffff16815260200190815260200160002060020154600360003373ffffffffffffffffffffffffffffffffffffffff1673ffffffffffffffffffffffffffffffffffffffff16815260200190815260200160002060030154925092509250909192565b600060606000808410158015610db9575060058411155b610dc257600080fd5b600660003373ffffffffffffffffffffffffffffffffffffffff1673ffffffffffffffffffffffffffffffffffffffff1681526020019081526020016000208460058110610e0c57fe5b6004020160000160009054906101000a900473ffffffffffffffffffffffffffffffffffffffff16600660003373ffffffffffffffffffffffffffffffffffffffff1673ffffffffffffffffffffffffffffffffffffffff1681526020019081526020016000208560058110610e7e57fe5b60040201600201600660003373ffffffffffffffffffffffffffffffffffffffff1673ffffffffffffffffffffffffffffffffffffffff1681526020019081526020016000208660058110610ecf57fe5b6004020160030154818054600181600116156101000203166002900480601f016020809104026020016040519081016040528092919081815260200182805460018160011615610100020316600290048015610f6c5780601f10610f4157610100808354040283529160200191610f6c565b820191906000526020600020905b815481529060010190602001808311610f4f57829003601f168201915b505050505091509250925092509193909250565b6000600960003373ffffffffffffffffffffffffffffffffffffffff1673ffffffffffffffffffffffffffffffffffffffff16815260200190815260200160002054905090565b42600960003373ffffffffffffffffffffffffffffffffffffffff1673ffffffffffffffffffffffffffffffffffffffff16815260200190815260200160002054111561101357600080fd5b6000803373ffffffffffffffffffffffffffffffffffffffff1673ffffffffffffffffffffffffffffffffffffffff168152602001908152602001600020816005811061105c57fe5b6003020160010154600260003373ffffffffffffffffffffffffffffffffffffffff1673ffffffffffffffffffffffffffffffffffffffff1681526020019081526020016000206000828254019250508190555060008060003373ffffffffffffffffffffffffffffffffffffffff1673ffffffffffffffffffffffffffffffffffffffff16815260200190815260200160002082600581106110fb57fe5b600302016001018190555060008060003373ffffffffffffffffffffffffffffffffffffffff1673ffffffffffffffffffffffffffffffffffffffff168152602001908152602001600020826005811061115157fe5b6003020160000181905550604051806020016040528060008152506000803373ffffffffffffffffffffffffffffffffffffffff1673ffffffffffffffffffffffffffffffffffffffff16815260200190815260200160002082600581106111b557fe5b6003020160020190805190602001906111cf92919061208c565b506000600160003373ffffffffffffffffffffffffffffffffffffffff1673ffffffffffffffffffffffffffffffffffffffff168152602001908152602001600020826005811061121c57fe5b018190555050565b6000600260003373ffffffffffffffffffffffffffffffffffffffff1673ffffffffffffffffffffffffffffffffffffffff16815260200190815260200160002054905090565b6000600160003373ffffffffffffffffffffffffffffffffffffffff1673ffffffffffffffffffffffffffffffffffffffff16815260200190815260200160002082600581106112b757fe5b01549050919050565b600080600090505b60058110156112f95760006112dc8261126b565b14156112ec5760009150506112ff565b80806001019150506112c8565b50600190505b90565b600060606000808410158015611319575060058411155b61132257600080fd5b600560003373ffffffffffffffffffffffffffffffffffffffff1673ffffffffffffffffffffffffffffffffffffffff168152602001908152602001600020846005811061136c57fe5b6004020160010160009054906101000a900473ffffffffffffffffffffffffffffffffffffffff16600560003373ffffffffffffffffffffffffffffffffffffffff1673ffffffffffffffffffffffffffffffffffffffff16815260200190815260200160002085600581106113de57fe5b60040201600201600560003373ffffffffffffffffffffffffffffffffffffffff1673ffffffffffffffffffffffffffffffffffffffff168152602001908152602001600020866005811061142f57fe5b6004020160030154818054600181600116156101000203166002900480601f0160208091040260200160405190810160405280929190818152602001828054600181600116156101000203166002900480156114cc5780601f106114a1576101008083540402835291602001916114cc565b820191906000526020600020905b8154815290600101906020018083116114af57829003601f168201915b505050505091509250925092509193909250565b6000806060600084101580156114f7575060058411155b61150057600080fd5b6000803373ffffffffffffffffffffffffffffffffffffffff1673ffffffffffffffffffffffffffffffffffffffff168152602001908152602001600020846005811061154957fe5b60030201600001546000803373ffffffffffffffffffffffffffffffffffffffff1673ffffffffffffffffffffffffffffffffffffffff168152602001908152602001600020856005811061159a57fe5b60030201600101546000803373ffffffffffffffffffffffffffffffffffffffff1673ffffffffffffffffffffffffffffffffffffffff16815260200190815260200160002086600581106115eb57fe5b60030201600201808054600181600116156101000203166002900480601f0160208091040260200160405190810160405280929190818152602001828054600181600116156101000203166002900480156116875780601f1061165c57610100808354040283529160200191611687565b820191906000526020600020905b81548152906001019060200180831161166a57829003601f168201915b505050505090509250925092509193909250565b60008251116116a957600080fd5b3373ffffffffffffffffffffffffffffffffffffffff168173ffffffffffffffffffffffffffffffffffffffff1614156116e257600080fd5b6116ea61210c565b60405180608001604052803373ffffffffffffffffffffffffffffffffffffffff1681526020018373ffffffffffffffffffffffffffffffffffffffff16815260200184815260200161173b610af2565b815250905080600560003373ffffffffffffffffffffffffffffffffffffffff1673ffffffffffffffffffffffffffffffffffffffff1681526020019081526020016000206005600760003373ffffffffffffffffffffffffffffffffffffffff1673ffffffffffffffffffffffffffffffffffffffff16815260200190815260200160002054816117c957fe5b06600581106117d457fe5b6004020160008201518160000160006101000a81548173ffffffffffffffffffffffffffffffffffffffff021916908373ffffffffffffffffffffffffffffffffffffffff16021790555060208201518160010160006101000a81548173ffffffffffffffffffffffffffffffffffffffff021916908373ffffffffffffffffffffffffffffffffffffffff160217905550604082015181600201908051906020019061188292919061200c565b50606082015181600301559050506001600760003373ffffffffffffffffffffffffffffffffffffffff1673ffffffffffffffffffffffffffffffffffffffff1681526020019081526020016000206000828254019250508190555080600660008473ffffffffffffffffffffffffffffffffffffffff1673ffffffffffffffffffffffffffffffffffffffff1681526020019081526020016000206005600860008673ffffffffffffffffffffffffffffffffffffffff1673ffffffffffffffffffffffffffffffffffffffff168152602001908152602001600020548161196757fe5b066005811061197257fe5b6004020160008201518160000160006101000a81548173ffffffffffffffffffffffffffffffffffffffff021916908373ffffffffffffffffffffffffffffffffffffffff16021790555060208201518160010160006101000a81548173ffffffffffffffffffffffffffffffffffffffff021916908373ffffffffffffffffffffffffffffffffffffffff1602179055506040820151816002019080519060200190611a2092919061200c565b50606082015181600301559050506001600860008473ffffffffffffffffffffffffffffffffffffffff1673ffffffffffffffffffffffffffffffffffffffff16815260200190815260200160002060008282540192505081905550505050565b6000806000600460003373ffffffffffffffffffffffffffffffffffffffff1673ffffffffffffffffffffffffffffffffffffffff16815260200190815260200160002060010160009054906101000a900473ffffffffffffffffffffffffffffffffffffffff16600460003373ffffffffffffffffffffffffffffffffffffffff1673ffffffffffffffffffffffffffffffffffffffff16815260200190815260200160002060020154600460003373ffffffffffffffffffffffffffffffffffffffff1673ffffffffffffffffffffffffffffffffffffffff16815260200190815260200160002060030154925092509250909192565b60003411611b8757600080fd5b42600960003373ffffffffffffffffffffffffffffffffffffffff1673ffffffffffffffffffffffffffffffffffffffff168152602001908152602001600020541115611bd357600080fd5b34600260003373ffffffffffffffffffffffffffffffffffffffff1673ffffffffffffffffffffffffffffffffffffffff16815260200190815260200160002060008282540192505081905550565b80600260003373ffffffffffffffffffffffffffffffffffffffff1673ffffffffffffffffffffffffffffffffffffffff1681526020019081526020016000205411611c6d57600080fd5b3373ffffffffffffffffffffffffffffffffffffffff168273ffffffffffffffffffffffffffffffffffffffff161415611ca657600080fd5b80600260003373ffffffffffffffffffffffffffffffffffffffff1673ffffffffffffffffffffffffffffffffffffffff1681526020019081526020016000206000828254039250508190555080600260008473ffffffffffffffffffffffffffffffffffffffff1673ffffffffffffffffffffffffffffffffffffffff16815260200190815260200160002060008282540192505081905550611d48612160565b60405180608001604052803373ffffffffffffffffffffffffffffffffffffffff1681526020018473ffffffffffffffffffffffffffffffffffffffff168152602001838152602001611d99610af2565b815250905080600460003373ffffffffffffffffffffffffffffffffffffffff1673ffffffffffffffffffffffffffffffffffffffff16815260200190815260200160002060008201518160000160006101000a81548173ffffffffffffffffffffffffffffffffffffffff021916908373ffffffffffffffffffffffffffffffffffffffff16021790555060208201518160010160006101000a81548173ffffffffffffffffffffffffffffffffffffffff021916908373ffffffffffffffffffffffffffffffffffffffff160217905550604082015181600201556060820151816003015590505080600360008573ffffffffffffffffffffffffffffffffffffffff1673ffffffffffffffffffffffffffffffffffffffff16815260200190815260200160002060008201518160000160006101000a81548173ffffffffffffffffffffffffffffffffffffffff021916908373ffffffffffffffffffffffffffffffffffffffff16021790555060208201518160010160006101000a81548173ffffffffffffffffffffffffffffffffffffffff021916908373ffffffffffffffffffffffffffffffffffffffff16021790555060408201518160020155606082015181600301559050507fe303bfcae5504a87ac4aee4818422409a3da17fecbfc891de411a02ffbacd2a5338484604051808473ffffffffffffffffffffffffffffffffffffffff1673ffffffffffffffffffffffffffffffffffffffff1681526020018373ffffffffffffffffffffffffffffffffffffffff1673ffffffffffffffffffffffffffffffffffffffff168152602001828152602001935050505060405180910390a1505050565b828054600181600116156101000203166002900490600052602060002090601f016020900481019282601f1061204d57805160ff191683800117855561207b565b8280016001018555821561207b579182015b8281111561207a57825182559160200191906001019061205f565b5b50905061208891906121b4565b5090565b828054600181600116156101000203166002900490600052602060002090601f016020900481019282601f106120cd57805160ff19168380011785556120fb565b828001600101855582156120fb579182015b828111156120fa5782518255916020019190600101906120df565b5b50905061210891906121b4565b5090565b6040518060800160405280600073ffffffffffffffffffffffffffffffffffffffff168152602001600073ffffffffffffffffffffffffffffffffffffffff16815260200160608152602001600081525090565b6040518060800160405280600073ffffffffffffffffffffffffffffffffffffffff168152602001600073ffffffffffffffffffffffffffffffffffffffff16815260200160008152602001600081525090565b6121d691905b808211156121d25760008160009055506001016121ba565b5090565b9056fea265627a7a72315820313d04d8a66777bf82f1f4a5dbd25b5e503f6c5ab0d287d710300a9e4efefe8f64736f6c63430005100032",
  "source": "pragma solidity >=0.4.21 <0.7.0;\ncontract Bank {\n    \n    /*--------------------------------\n            FREEZE MONEY\n    --------------------------------*/\n    \n    mapping(address => FreezeTransaction[5]) freezedTransactions;\n    mapping(address => uint[5]) freezedTransactionOccupied;\n\n    \n    struct FreezeTransaction {\n        uint256 date;\n        uint256 value;\n        string message;\n    }\n    \n    function createFreezeTranaction(uint256 _date, uint256 _value, string memory _message) public {\n        require(balances[msg.sender] >= _value);\n        //require(_date > now);\n        require(freezeContractEnd[msg.sender] <= now);\n        \n        balances[msg.sender] -= _value;\n        uint nextEmptyIndex = getNextEmptyFreezeTransactionIndex();\n        freezedTransactions[msg.sender][nextEmptyIndex] = FreezeTransaction(\n            _date,\n            _value,\n            _message\n        );\n        freezedTransactionOccupied[msg.sender][nextEmptyIndex] = 1;\n    }\n    \n    function finishFreezeTransaction(uint _index) public {\n        require(freezeContractEnd[msg.sender] <= now);\n        balances[msg.sender] += freezedTransactions[msg.sender][_index].value;\n        freezedTransactions[msg.sender][_index].value = 0;\n        freezedTransactions[msg.sender][_index].date = 0;\n        freezedTransactions[msg.sender][_index].message =\"\";\n        freezedTransactionOccupied[msg.sender][_index] = 0;\n    }\n    \n    \n    function getNextEmptyFreezeTransactionIndex() public view returns (uint) {\n        for(uint i = 0 ; i < 5; i++){\n            if(freezedTransactionOccupied[msg.sender][i] == 0){\n                return i;\n            }\n        }\n    }\n    \n    \n    function getFreezedTransactionOccupied(uint _index) public view returns (uint) {\n        return freezedTransactionOccupied[msg.sender][_index];\n    }\n    \n    \n    function allFreezedTransactionsOccupied() public view returns(bool){\n        for(uint i = 0 ; i < 5; i++){\n            if(getFreezedTransactionOccupied(i)== 0){\n                return false;\n            }\n        }\n        return true;\n    }\n    \n    \n    \n    function getFreezeTransaction(uint256 _position)\n        public\n        view\n        returns (\n            uint256,\n            uint256,\n            string memory\n        )\n    {\n        require(_position >= 0 && _position <= 5);\n        return (\n            freezedTransactions[msg.sender][_position].date,\n            freezedTransactions[msg.sender][_position].value,\n            freezedTransactions[msg.sender][_position].message\n    );\n        \n    }\n       \n    \n    \n    /*--------------------------------\n            MONEY SECTION\n    --------------------------------*/\n    mapping(address => uint256) balances;\n    mapping(address => Transaction) lastReceivedTransaction;\n    mapping(address => Transaction) lastSendTransaction;\n\n    event NewTransaction(address sender, address receiver, uint256 value);\n\n    struct Transaction {\n        address sender;\n        address receiver;\n        uint256 value;\n        uint256 time;\n    }\n\n    function deposit() public payable {\n        require(msg.value > 0);\n        require(freezeContractEnd[msg.sender] <= now);\n        balances[msg.sender] += msg.value;\n    }\n\n    function withdraw(uint256 _value) public {\n        require(balances[msg.sender] >= _value);\n        require(freezeContractEnd[msg.sender] <= now);\n        msg.sender.transfer(_value);\n        balances[msg.sender] -= _value;\n    }\n\n    function sendMoney(address _address, uint256 _value) public {\n        require(balances[msg.sender] > _value);\n        require(_address != msg.sender);\n        balances[msg.sender] -= _value;\n        balances[_address] += _value;\n\n        Transaction memory transaction = Transaction(\n            msg.sender,\n            _address,\n            _value,\n            getCurrentTime()\n        );\n\n        lastSendTransaction[msg.sender] = transaction;\n        lastReceivedTransaction[_address] = transaction;\n\n        emit NewTransaction(msg.sender, _address, _value);\n    }\n\n    function getOwnBalance() public view returns (uint256) {\nreturn balances[msg.sender];\n    }\n\n    function getLastReceivedTransaction()\n        public\n        view\n        returns (\n            address,\n            uint256,\n            uint256\n        )\n    {\n        return (\n            lastReceivedTransaction[msg.sender].sender,\n            lastReceivedTransaction[msg.sender].value,\n            lastReceivedTransaction[msg.sender].time\n        );\n    }\n\n    function getLastSendTransaction()\n        public\n        view\n        returns (\n            address,\n            uint256,\n            uint256\n)\n    {\n        return (\n            lastSendTransaction[msg.sender].receiver,\n            lastSendTransaction[msg.sender].value,\n            lastSendTransaction[msg.sender].time\n        );\n    }\n\n    /*--------------------------------\n            MESSAGE SECTION\n    --------------------------------*/\n\n    mapping(address => Message[5]) messagesSend;\n    mapping(address => Message[5]) messagesReceived;\n\n    mapping(address => uint256) messagesSendCounter;\n    mapping(address => uint256) messagesReceivedCounter;\n\n    struct Message {\n        address sender;\n        address receiver;\n        string message;\n        uint256 time;\n    }\n\n    function sendMessage(string memory _message, address _address) public {\n        require(bytes(_message).length > 0);\n        require(_address != msg.sender);\n\n        Message memory message = Message(\n            msg.sender,\n            _address,\n            _message,\n            getCurrentTime()\n        );\n\n        messagesSend[msg.sender][messagesSendCounter[msg.sender] % 5] = message;\n        messagesSendCounter[msg.sender] += 1;\n\n        messagesReceived[_address][messagesReceivedCounter[_address] %\n            5] = message;\n        messagesReceivedCounter[_address] += 1;\n    }\n\n    function getSendMessages(uint256 _position)\n        public\n        view\n        returns (\n            address,\n            string memory,\n            uint256\n        )\n    {\n        require(_position >= 0 && _position <= 5);\n        return (\n            messagesSend[msg.sender][_position].receiver,\n            messagesSend[msg.sender][_position].message,\n            messagesSend[msg.sender][_position].time\n        );\n    }\n\n    function getReceivedMessages(uint256 _position)\n        public\n        view\n        returns (\n            address,\n            string memory,\n            uint256\n        )\n    {\n        require(_position >= 0 && _position <= 5);\n        return (\n            messagesReceived[msg.sender][_position].sender,\n            messagesReceived[msg.sender][_position].message,\n            messagesReceived[msg.sender][_position].time\n        );\n    }\n    \n        /*--------------------------------\n            FREEZE CONTRACT\n    --------------------------------*/\n    \n    mapping(address => uint256) freezeContractEnd;\n\n    function getOwnFreezeContractEnd() public view returns (uint256) {\n        return freezeContractEnd[msg.sender];\n    }\n\n    function freezeContract(uint256 _timeToFreeze) public {\n        require(balances[msg.sender] > 0);\n        freezeContractEnd[msg.sender] = now + _timeToFreeze;\n    }\n    \n    /*\n    HELPER FUNCTIONS\n    */\n\n    function getCurrentTime() public view returns (uint256) {\n        return now;\n    }\n}\n",
  "sourcePath": "/home/drogo/Desktop/gitProjects/programmableMoney/contracts/Bank.sol",
  "compiler": {
    "name": "solc",
    "version": "0.5.16+commit.9c3226ce.Emscripten.clang"
  },
  "schemaVersion": "3.2.1",
  "updatedAt": "2020-07-23T18:52:43.408Z",
  "networkType": "ethereum",
  "devdoc": {
    "methods": {}
  },
  "userdoc": {
    "methods": {}
  }
}