{
  "contractName": "Bank",
  "abi": [
    {
      "anonymous": false,
      "inputs": [
        {
          "indexed": false,
          "internalType": "address",
          "name": "sender",
          "type": "address"
        },
        {
          "indexed": false,
          "internalType": "address",
          "name": "receiver",
          "type": "address"
        },
        {
          "indexed": false,
          "internalType": "uint256",
          "name": "value",
          "type": "uint256"
        }
      ],
      "name": "NewTransaction",
      "type": "event"
    },
    {
      "constant": false,
      "inputs": [],
      "name": "deposit",
      "outputs": [],
      "payable": true,
      "stateMutability": "payable",
      "type": "function"
    },
    {
      "constant": false,
      "inputs": [
        {
          "internalType": "uint256",
          "name": "_value",
          "type": "uint256"
        }
      ],
      "name": "withdraw",
      "outputs": [],
      "payable": false,
      "stateMutability": "nonpayable",
      "type": "function"
    },
    {
      "constant": false,
      "inputs": [
        {
          "internalType": "address",
          "name": "_address",
          "type": "address"
        },
        {
          "internalType": "uint256",
          "name": "_value",
          "type": "uint256"
        }
      ],
      "name": "sendMoney",
      "outputs": [],
      "payable": false,
      "stateMutability": "nonpayable",
      "type": "function"
    },
    {
      "constant": true,
      "inputs": [],
      "name": "getOwnBalance",
      "outputs": [
        {
          "internalType": "uint256",
          "name": "",
          "type": "uint256"
        }
      ],
      "payable": false,
      "stateMutability": "view",
      "type": "function"
    },
    {
      "constant": true,
      "inputs": [],
      "name": "getLastReceivedTransaction",
      "outputs": [
        {
          "internalType": "address",
          "name": "",
          "type": "address"
        },
        {
          "internalType": "uint256",
          "name": "",
          "type": "uint256"
        },
        {
          "internalType": "uint256",
          "name": "",
          "type": "uint256"
        }
      ],
      "payable": false,
      "stateMutability": "view",
      "type": "function"
    },
    {
      "constant": true,
      "inputs": [],
      "name": "getLastSendTransaction",
      "outputs": [
        {
          "internalType": "address",
          "name": "",
          "type": "address"
        },
        {
          "internalType": "uint256",
          "name": "",
          "type": "uint256"
        },
        {
          "internalType": "uint256",
          "name": "",
          "type": "uint256"
        }
      ],
      "payable": false,
      "stateMutability": "view",
      "type": "function"
    },
    {
      "constant": false,
      "inputs": [
        {
          "internalType": "uint256",
          "name": "_date",
          "type": "uint256"
        },
        {
          "internalType": "uint256",
          "name": "_value",
          "type": "uint256"
        },
        {
          "internalType": "string",
          "name": "_message",
          "type": "string"
        }
      ],
      "name": "createFreezeTranaction",
      "outputs": [],
      "payable": false,
      "stateMutability": "nonpayable",
      "type": "function"
    },
    {
      "constant": false,
      "inputs": [
        {
          "internalType": "uint256",
          "name": "_index",
          "type": "uint256"
        }
      ],
      "name": "finishFreezeTransaction",
      "outputs": [],
      "payable": false,
      "stateMutability": "nonpayable",
      "type": "function"
    },
    {
      "constant": true,
      "inputs": [
        {
          "internalType": "uint256",
          "name": "_position",
          "type": "uint256"
        }
      ],
      "name": "getFreezeTransaction",
      "outputs": [
        {
          "internalType": "uint256",
          "name": "",
          "type": "uint256"
        },
        {
          "internalType": "uint256",
          "name": "",
          "type": "uint256"
        },
        {
          "internalType": "string",
          "name": "",
          "type": "string"
        }
      ],
      "payable": false,
      "stateMutability": "view",
      "type": "function"
    },
    {
      "constant": false,
      "inputs": [
        {
          "internalType": "string",
          "name": "_message",
          "type": "string"
        },
        {
          "internalType": "address",
          "name": "_address",
          "type": "address"
        }
      ],
      "name": "sendMessage",
      "outputs": [],
      "payable": false,
      "stateMutability": "nonpayable",
      "type": "function"
    },
    {
      "constant": true,
      "inputs": [
        {
          "internalType": "uint256",
          "name": "_position",
          "type": "uint256"
        }
      ],
      "name": "getSendMessages",
      "outputs": [
        {
          "internalType": "address",
          "name": "",
          "type": "address"
        },
        {
          "internalType": "string",
          "name": "",
          "type": "string"
        },
        {
          "internalType": "uint256",
          "name": "",
          "type": "uint256"
        }
      ],
      "payable": false,
      "stateMutability": "view",
      "type": "function"
    },
    {
      "constant": true,
      "inputs": [
        {
          "internalType": "uint256",
          "name": "_position",
          "type": "uint256"
        }
      ],
      "name": "getReceivedMessages",
      "outputs": [
        {
          "internalType": "address",
          "name": "",
          "type": "address"
        },
        {
          "internalType": "string",
          "name": "",
          "type": "string"
        },
        {
          "internalType": "uint256",
          "name": "",
          "type": "uint256"
        }
      ],
      "payable": false,
      "stateMutability": "view",
      "type": "function"
    },
    {
      "constant": true,
      "inputs": [],
      "name": "getOwnFreezeContractEnd",
      "outputs": [
        {
          "internalType": "uint256",
          "name": "",
          "type": "uint256"
        }
      ],
      "payable": false,
      "stateMutability": "view",
      "type": "function"
    },
    {
      "constant": false,
      "inputs": [
        {
          "internalType": "uint256",
          "name": "_timeToFreeze",
          "type": "uint256"
        }
      ],
      "name": "freezeContract",
      "outputs": [],
      "payable": false,
      "stateMutability": "nonpayable",
      "type": "function"
    },
    {
      "constant": true,
      "inputs": [],
      "name": "getCurrentTime",
      "outputs": [
        {
          "internalType": "uint256",
          "name": "",
          "type": "uint256"
        }
      ],
      "payable": false,
      "stateMutability": "view",
      "type": "function"
    }
  ],
  "bytecode": "0x608060405234801561001057600080fd5b506121c3806100206000396000f3fe6080604052600436106100e85760003560e01c80636bc3c7f71161008a578063c48d6d5e11610059578063c48d6d5e146105fe578063c84349cc146106e6578063d0e30db01461074b578063ee4ae2c914610755576100e8565b80636bc3c7f7146103e85780637130474e146104235780639912a6bd1461044e578063adb3b3d41461053c576100e8565b80632e1a7d4d116100c65780632e1a7d4d1461022f5780634a43d7911461026a5780635fe1a551146102cf5780636b1b40dc146103bd576100e8565b806314795607146100ed578063286ddb68146101c957806329cb924d14610204575b600080fd5b3480156100f957600080fd5b506101c76004803603606081101561011057600080fd5b8101908080359060200190929190803590602001909291908035906020019064010000000081111561014157600080fd5b82018360208201111561015357600080fd5b8035906020019184600183028401116401000000008311171561017557600080fd5b91908080601f016020809104026020016040519081016040528093929190818152602001838380828437600081840152601f19601f8201169050808301925050505050505091929192905050506107b0565b005b3480156101d557600080fd5b50610202600480360360208110156101ec57600080fd5b81019080803590602001909291905050506109b7565b005b34801561021057600080fd5b50610219610a4b565b6040518082815260200191505060405180910390f35b34801561023b57600080fd5b506102686004803603602081101561025257600080fd5b8101908080359060200190929190505050610a53565b005b34801561027657600080fd5b5061027f610b80565b604051808473ffffffffffffffffffffffffffffffffffffffff1673ffffffffffffffffffffffffffffffffffffffff168152602001838152602001828152602001935050505060405180910390f35b3480156102db57600080fd5b50610308600480360360208110156102f257600080fd5b8101908080359060200190929190505050610c79565b604051808473ffffffffffffffffffffffffffffffffffffffff1673ffffffffffffffffffffffffffffffffffffffff16815260200180602001838152602001828103825284818151815260200191508051906020019080838360005b83811015610380578082015181840152602081019050610365565b50505050905090810190601f1680156103ad5780820380516001836020036101000a031916815260200191505b5094505050505060405180910390f35b3480156103c957600080fd5b506103d2610e57565b6040518082815260200191505060405180910390f35b3480156103f457600080fd5b506104216004803603602081101561040b57600080fd5b8101908080359060200190929190505050610e9e565b005b34801561042f57600080fd5b5061043861115b565b6040518082815260200191505060405180910390f35b34801561045a57600080fd5b506104876004803603602081101561047157600080fd5b81019080803590602001909291905050506111a1565b604051808473ffffffffffffffffffffffffffffffffffffffff1673ffffffffffffffffffffffffffffffffffffffff16815260200180602001838152602001828103825284818151815260200191508051906020019080838360005b838110156104ff5780820151818401526020810190506104e4565b50505050905090810190601f16801561052c5780820380516001836020036101000a031916815260200191505b5094505050505060405180910390f35b34801561054857600080fd5b506105756004803603602081101561055f57600080fd5b810190808035906020019092919050505061137f565b6040518084815260200183815260200180602001828103825283818151815260200191508051906020019080838360005b838110156105c15780820151818401526020810190506105a6565b50505050905090810190601f1680156105ee5780820380516001836020036101000a031916815260200191505b5094505050505060405180910390f35b34801561060a57600080fd5b506106e46004803603604081101561062157600080fd5b810190808035906020019064010000000081111561063e57600080fd5b82018360208201111561065057600080fd5b8035906020019184600183028401116401000000008311171561067257600080fd5b91908080601f016020809104026020016040519081016040528093929190818152602001838380828437600081840152601f19601f820116905080830192505050505050509192919290803573ffffffffffffffffffffffffffffffffffffffff16906020019092919050505061153d565b005b3480156106f257600080fd5b506106fb611923565b604051808473ffffffffffffffffffffffffffffffffffffffff1673ffffffffffffffffffffffffffffffffffffffff168152602001838152602001828152602001935050505060405180910390f35b610753611a1c565b005b34801561076157600080fd5b506107ae6004803603604081101561077857600080fd5b81019080803573ffffffffffffffffffffffffffffffffffffffff16906020019092919080359060200190929190505050611ac3565b005b600015156107bc611eaa565b1515146107c857600080fd5b816000803373ffffffffffffffffffffffffffffffffffffffff1673ffffffffffffffffffffffffffffffffffffffff16815260200190815260200160002054101561081357600080fd5b42831161081f57600080fd5b42600960003373ffffffffffffffffffffffffffffffffffffffff1673ffffffffffffffffffffffffffffffffffffffff16815260200190815260200160002054111561086b57600080fd5b816000803373ffffffffffffffffffffffffffffffffffffffff1673ffffffffffffffffffffffffffffffffffffffff1681526020019081526020016000206000828254039250508190555060006108c1611eec565b9050604051806060016040528085815260200184815260200183815250600360003373ffffffffffffffffffffffffffffffffffffffff1673ffffffffffffffffffffffffffffffffffffffff168152602001908152602001600020826005811061092857fe5b600302016000820151816000015560208201518160010155604082015181600201908051906020019061095c929190611fc1565b509050506001600460003373ffffffffffffffffffffffffffffffffffffffff1673ffffffffffffffffffffffffffffffffffffffff16815260200190815260200160002082600581106109ac57fe5b018190555050505050565b60008060003373ffffffffffffffffffffffffffffffffffffffff1673ffffffffffffffffffffffffffffffffffffffff1681526020019081526020016000205411610a0257600080fd5b804201600960003373ffffffffffffffffffffffffffffffffffffffff1673ffffffffffffffffffffffffffffffffffffffff1681526020019081526020016000208190555050565b600042905090565b806000803373ffffffffffffffffffffffffffffffffffffffff1673ffffffffffffffffffffffffffffffffffffffff168152602001908152602001600020541015610a9e57600080fd5b42600960003373ffffffffffffffffffffffffffffffffffffffff1673ffffffffffffffffffffffffffffffffffffffff168152602001908152602001600020541115610aea57600080fd5b3373ffffffffffffffffffffffffffffffffffffffff166108fc829081150290604051600060405180830381858888f19350505050158015610b30573d6000803e3d6000fd5b50806000803373ffffffffffffffffffffffffffffffffffffffff1673ffffffffffffffffffffffffffffffffffffffff1681526020019081526020016000206000828254039250508190555050565b6000806000600160003373ffffffffffffffffffffffffffffffffffffffff1673ffffffffffffffffffffffffffffffffffffffff16815260200190815260200160002060000160009054906101000a900473ffffffffffffffffffffffffffffffffffffffff16600160003373ffffffffffffffffffffffffffffffffffffffff1673ffffffffffffffffffffffffffffffffffffffff16815260200190815260200160002060020154600160003373ffffffffffffffffffffffffffffffffffffffff1673ffffffffffffffffffffffffffffffffffffffff16815260200190815260200160002060030154925092509250909192565b600060606000808410158015610c90575060058411155b610c9957600080fd5b600660003373ffffffffffffffffffffffffffffffffffffffff1673ffffffffffffffffffffffffffffffffffffffff1681526020019081526020016000208460058110610ce357fe5b6004020160000160009054906101000a900473ffffffffffffffffffffffffffffffffffffffff16600660003373ffffffffffffffffffffffffffffffffffffffff1673ffffffffffffffffffffffffffffffffffffffff1681526020019081526020016000208560058110610d5557fe5b60040201600201600660003373ffffffffffffffffffffffffffffffffffffffff1673ffffffffffffffffffffffffffffffffffffffff1681526020019081526020016000208660058110610da657fe5b6004020160030154818054600181600116156101000203166002900480601f016020809104026020016040519081016040528092919081815260200182805460018160011615610100020316600290048015610e435780601f10610e1857610100808354040283529160200191610e43565b820191906000526020600020905b815481529060010190602001808311610e2657829003601f168201915b505050505091509250925092509193909250565b6000600960003373ffffffffffffffffffffffffffffffffffffffff1673ffffffffffffffffffffffffffffffffffffffff16815260200190815260200160002054905090565b42600960003373ffffffffffffffffffffffffffffffffffffffff1673ffffffffffffffffffffffffffffffffffffffff168152602001908152602001600020541115610eea57600080fd5b42600360003373ffffffffffffffffffffffffffffffffffffffff1673ffffffffffffffffffffffffffffffffffffffff1681526020019081526020016000208260058110610f3557fe5b600302016000015410610f4757600080fd5b600360003373ffffffffffffffffffffffffffffffffffffffff1673ffffffffffffffffffffffffffffffffffffffff1681526020019081526020016000208160058110610f9157fe5b60030201600101546000803373ffffffffffffffffffffffffffffffffffffffff1673ffffffffffffffffffffffffffffffffffffffff168152602001908152602001600020600082825401925050819055506000600360003373ffffffffffffffffffffffffffffffffffffffff1673ffffffffffffffffffffffffffffffffffffffff168152602001908152602001600020826005811061103057fe5b60030201600101819055506000600360003373ffffffffffffffffffffffffffffffffffffffff1673ffffffffffffffffffffffffffffffffffffffff168152602001908152602001600020826005811061108757fe5b600302016000018190555060405180602001604052806000815250600360003373ffffffffffffffffffffffffffffffffffffffff1673ffffffffffffffffffffffffffffffffffffffff16815260200190815260200160002082600581106110ec57fe5b600302016002019080519060200190611106929190612041565b506000600460003373ffffffffffffffffffffffffffffffffffffffff1673ffffffffffffffffffffffffffffffffffffffff168152602001908152602001600020826005811061115357fe5b018190555050565b60008060003373ffffffffffffffffffffffffffffffffffffffff1673ffffffffffffffffffffffffffffffffffffffff16815260200190815260200160002054905090565b6000606060008084101580156111b8575060058411155b6111c157600080fd5b600560003373ffffffffffffffffffffffffffffffffffffffff1673ffffffffffffffffffffffffffffffffffffffff168152602001908152602001600020846005811061120b57fe5b6004020160010160009054906101000a900473ffffffffffffffffffffffffffffffffffffffff16600560003373ffffffffffffffffffffffffffffffffffffffff1673ffffffffffffffffffffffffffffffffffffffff168152602001908152602001600020856005811061127d57fe5b60040201600201600560003373ffffffffffffffffffffffffffffffffffffffff1673ffffffffffffffffffffffffffffffffffffffff16815260200190815260200160002086600581106112ce57fe5b6004020160030154818054600181600116156101000203166002900480601f01602080910402602001604051908101604052809291908181526020018280546001816001161561010002031660029004801561136b5780601f106113405761010080835404028352916020019161136b565b820191906000526020600020905b81548152906001019060200180831161134e57829003601f168201915b505050505091509250925092509193909250565b600080606060008410158015611396575060058411155b61139f57600080fd5b600360003373ffffffffffffffffffffffffffffffffffffffff1673ffffffffffffffffffffffffffffffffffffffff16815260200190815260200160002084600581106113e957fe5b6003020160000154600360003373ffffffffffffffffffffffffffffffffffffffff1673ffffffffffffffffffffffffffffffffffffffff168152602001908152602001600020856005811061143b57fe5b6003020160010154600360003373ffffffffffffffffffffffffffffffffffffffff1673ffffffffffffffffffffffffffffffffffffffff168152602001908152602001600020866005811061148d57fe5b60030201600201808054600181600116156101000203166002900480601f0160208091040260200160405190810160405280929190818152602001828054600181600116156101000203166002900480156115295780601f106114fe57610100808354040283529160200191611529565b820191906000526020600020905b81548152906001019060200180831161150c57829003601f168201915b505050505090509250925092509193909250565b600082511161154b57600080fd5b3373ffffffffffffffffffffffffffffffffffffffff168173ffffffffffffffffffffffffffffffffffffffff16141561158457600080fd5b61158c6120c1565b60405180608001604052803373ffffffffffffffffffffffffffffffffffffffff1681526020018373ffffffffffffffffffffffffffffffffffffffff1681526020018481526020016115dd610a4b565b815250905080600560003373ffffffffffffffffffffffffffffffffffffffff1673ffffffffffffffffffffffffffffffffffffffff1681526020019081526020016000206005600760003373ffffffffffffffffffffffffffffffffffffffff1673ffffffffffffffffffffffffffffffffffffffff168152602001908152602001600020548161166b57fe5b066005811061167657fe5b6004020160008201518160000160006101000a81548173ffffffffffffffffffffffffffffffffffffffff021916908373ffffffffffffffffffffffffffffffffffffffff16021790555060208201518160010160006101000a81548173ffffffffffffffffffffffffffffffffffffffff021916908373ffffffffffffffffffffffffffffffffffffffff1602179055506040820151816002019080519060200190611724929190611fc1565b50606082015181600301559050506001600760003373ffffffffffffffffffffffffffffffffffffffff1673ffffffffffffffffffffffffffffffffffffffff1681526020019081526020016000206000828254019250508190555080600660008473ffffffffffffffffffffffffffffffffffffffff1673ffffffffffffffffffffffffffffffffffffffff1681526020019081526020016000206005600860008673ffffffffffffffffffffffffffffffffffffffff1673ffffffffffffffffffffffffffffffffffffffff168152602001908152602001600020548161180957fe5b066005811061181457fe5b6004020160008201518160000160006101000a81548173ffffffffffffffffffffffffffffffffffffffff021916908373ffffffffffffffffffffffffffffffffffffffff16021790555060208201518160010160006101000a81548173ffffffffffffffffffffffffffffffffffffffff021916908373ffffffffffffffffffffffffffffffffffffffff16021790555060408201518160020190805190602001906118c2929190611fc1565b50606082015181600301559050506001600860008473ffffffffffffffffffffffffffffffffffffffff1673ffffffffffffffffffffffffffffffffffffffff16815260200190815260200160002060008282540192505081905550505050565b6000806000600260003373ffffffffffffffffffffffffffffffffffffffff1673ffffffffffffffffffffffffffffffffffffffff16815260200190815260200160002060010160009054906101000a900473ffffffffffffffffffffffffffffffffffffffff16600260003373ffffffffffffffffffffffffffffffffffffffff1673ffffffffffffffffffffffffffffffffffffffff16815260200190815260200160002060020154600260003373ffffffffffffffffffffffffffffffffffffffff1673ffffffffffffffffffffffffffffffffffffffff16815260200190815260200160002060030154925092509250909192565b60003411611a2957600080fd5b42600960003373ffffffffffffffffffffffffffffffffffffffff1673ffffffffffffffffffffffffffffffffffffffff168152602001908152602001600020541115611a7557600080fd5b346000803373ffffffffffffffffffffffffffffffffffffffff1673ffffffffffffffffffffffffffffffffffffffff16815260200190815260200160002060008282540192505081905550565b806000803373ffffffffffffffffffffffffffffffffffffffff1673ffffffffffffffffffffffffffffffffffffffff1681526020019081526020016000205411611b0d57600080fd5b3373ffffffffffffffffffffffffffffffffffffffff168273ffffffffffffffffffffffffffffffffffffffff161415611b4657600080fd5b806000803373ffffffffffffffffffffffffffffffffffffffff1673ffffffffffffffffffffffffffffffffffffffff16815260200190815260200160002060008282540392505081905550806000808473ffffffffffffffffffffffffffffffffffffffff1673ffffffffffffffffffffffffffffffffffffffff16815260200190815260200160002060008282540192505081905550611be6612115565b60405180608001604052803373ffffffffffffffffffffffffffffffffffffffff1681526020018473ffffffffffffffffffffffffffffffffffffffff168152602001838152602001611c37610a4b565b815250905080600260003373ffffffffffffffffffffffffffffffffffffffff1673ffffffffffffffffffffffffffffffffffffffff16815260200190815260200160002060008201518160000160006101000a81548173ffffffffffffffffffffffffffffffffffffffff021916908373ffffffffffffffffffffffffffffffffffffffff16021790555060208201518160010160006101000a81548173ffffffffffffffffffffffffffffffffffffffff021916908373ffffffffffffffffffffffffffffffffffffffff160217905550604082015181600201556060820151816003015590505080600160008573ffffffffffffffffffffffffffffffffffffffff1673ffffffffffffffffffffffffffffffffffffffff16815260200190815260200160002060008201518160000160006101000a81548173ffffffffffffffffffffffffffffffffffffffff021916908373ffffffffffffffffffffffffffffffffffffffff16021790555060208201518160010160006101000a81548173ffffffffffffffffffffffffffffffffffffffff021916908373ffffffffffffffffffffffffffffffffffffffff16021790555060408201518160020155606082015181600301559050507fe303bfcae5504a87ac4aee4818422409a3da17fecbfc891de411a02ffbacd2a5338484604051808473ffffffffffffffffffffffffffffffffffffffff1673ffffffffffffffffffffffffffffffffffffffff1681526020018373ffffffffffffffffffffffffffffffffffffffff1673ffffffffffffffffffffffffffffffffffffffff168152602001828152602001935050505060405180910390a1505050565b600080600090505b6005811015611ee3576000611ec682611f6c565b1415611ed6576000915050611ee9565b8080600101915050611eb2565b50600190505b90565b600080600090505b6005811015611f67576000600460003373ffffffffffffffffffffffffffffffffffffffff1673ffffffffffffffffffffffffffffffffffffffff1681526020019081526020016000208260058110611f4957fe5b01541415611f5a5780915050611f69565b8080600101915050611ef4565b505b90565b6000600460003373ffffffffffffffffffffffffffffffffffffffff1673ffffffffffffffffffffffffffffffffffffffff1681526020019081526020016000208260058110611fb857fe5b01549050919050565b828054600181600116156101000203166002900490600052602060002090601f016020900481019282601f1061200257805160ff1916838001178555612030565b82800160010185558215612030579182015b8281111561202f578251825591602001919060010190612014565b5b50905061203d9190612169565b5090565b828054600181600116156101000203166002900490600052602060002090601f016020900481019282601f1061208257805160ff19168380011785556120b0565b828001600101855582156120b0579182015b828111156120af578251825591602001919060010190612094565b5b5090506120bd9190612169565b5090565b6040518060800160405280600073ffffffffffffffffffffffffffffffffffffffff168152602001600073ffffffffffffffffffffffffffffffffffffffff16815260200160608152602001600081525090565b6040518060800160405280600073ffffffffffffffffffffffffffffffffffffffff168152602001600073ffffffffffffffffffffffffffffffffffffffff16815260200160008152602001600081525090565b61218b91905b8082111561218757600081600090555060010161216f565b5090565b9056fea265627a7a72315820b5a06c73984ba7af7546bcf4af61131d2f7a1aaa0ac678fe61e84fde7a902a7664736f6c63430005100032",
  "source": "pragma solidity >=0.4.21 <0.7.0;\ncontract Bank {\n    /*--------------------------------\n            MONEY SECTION\n    --------------------------------*/\n    mapping(address => uint256) balances;\n    mapping(address => Transaction) lastReceivedTransaction;\n    mapping(address => Transaction) lastSendTransaction;\n\n    event NewTransaction(address sender, address receiver, uint256 value);\n\n    struct Transaction {\n        address sender;\n        address receiver;\n        uint256 value;\n        uint256 time;\n    }\n\n    function deposit() public payable {\n        require(msg.value > 0);\n        require(freezeContractEnd[msg.sender] <= now);\n        balances[msg.sender] += msg.value;\n    }\n\n    function withdraw(uint256 _value) public {\n        require(balances[msg.sender] >= _value);\n        require(freezeContractEnd[msg.sender] <= now);\n        msg.sender.transfer(_value);\n        balances[msg.sender] -= _value;\n    }\n\n    function sendMoney(address _address, uint256 _value) public {\n        require(balances[msg.sender] > _value);\n        require(_address != msg.sender);\n        balances[msg.sender] -= _value;\n        balances[_address] += _value;\n\n        Transaction memory transaction = Transaction(\n            msg.sender,\n            _address,\n            _value,\n            getCurrentTime()\n        );\n\n        lastSendTransaction[msg.sender] = transaction;\n        lastReceivedTransaction[_address] = transaction;\n\n        emit NewTransaction(msg.sender, _address, _value);\n    }\n\n    function getOwnBalance() public view returns (uint256) {\n        return balances[msg.sender];\n    }\n\n    function getLastReceivedTransaction()\n        public\n        view\n        returns (\n            address,\n            uint256,\n            uint256\n        )\n    {\n        return (\n            lastReceivedTransaction[msg.sender].sender,\n            lastReceivedTransaction[msg.sender].value,\n            lastReceivedTransaction[msg.sender].time\n        );\n    }\n\n    function getLastSendTransaction()\n        public\n        view\n        returns (\n            address,\n            uint256,\n            uint256\n        )\n    {\n        return (\n            lastSendTransaction[msg.sender].receiver,\n            lastSendTransaction[msg.sender].value,\n            lastSendTransaction[msg.sender].time\n        );\n    }\n\n    /*--------------------------------\n            FREEZE MONEY\n    --------------------------------*/\n\n    mapping(address => FreezeTransaction[5]) freezedTransactions;\n    mapping(address => uint256[5]) freezedTransactionOccupied;\n\n    struct FreezeTransaction {\n        uint256 date;\n        uint256 value;\n        string message;\n    }\n\n    function createFreezeTranaction(\n        uint256 _date,\n        uint256 _value,\n        string memory _message\n    ) public {\n        require(allFreezedTransactionsOccupied() == false);\n        require(balances[msg.sender] >= _value);\n        require(_date > now);\n        require(freezeContractEnd[msg.sender] <= now);\n\n        balances[msg.sender] -= _value;\n        uint256 nextEmptyIndex = getNextEmptyFreezeTransactionIndex();\n        freezedTransactions[msg.sender][nextEmptyIndex] = FreezeTransaction(\n            _date,\n            _value,\n            _message\n        );\n        freezedTransactionOccupied[msg.sender][nextEmptyIndex] = 1;\n    }\n\n    function finishFreezeTransaction(uint256 _index) public {\n        require(freezeContractEnd[msg.sender] <= now);\n        require(freezedTransactions[msg.sender][_index].date < now);\n        balances[msg.sender] += freezedTransactions[msg.sender][_index].value;\n        freezedTransactions[msg.sender][_index].value = 0;\n        freezedTransactions[msg.sender][_index].date = 0;\n        freezedTransactions[msg.sender][_index].message = \"\";\n        freezedTransactionOccupied[msg.sender][_index] = 0;\n    }\n\n    function getFreezeTransaction(uint256 _position)\n        public\n        view\n        returns (\n            uint256,\n            uint256,\n            string memory\n        )\n    {\n        require(_position >= 0 && _position <= 5);\n        return (\n            freezedTransactions[msg.sender][_position].date,\n            freezedTransactions[msg.sender][_position].value,\n            freezedTransactions[msg.sender][_position].message\n        );\n    }\n\n    function getNextEmptyFreezeTransactionIndex()\n        private\n        view\n        returns (uint256)\n    {\n        for (uint256 i = 0; i < 5; i++) {\n            if (freezedTransactionOccupied[msg.sender][i] == 0) {\n                return i;\n            }\n        }\n    }\n\n    function getFreezedTransactionOccupied(uint256 _index)\n        private\n        view\n        returns (uint256)\n    {\n        return freezedTransactionOccupied[msg.sender][_index];\n    }\n\n    function allFreezedTransactionsOccupied() private view returns (bool) {\n        for (uint256 i = 0; i < 5; i++) {\n            if (getFreezedTransactionOccupied(i) == 0) {\n                return false;\n            }\n        }\n        return true;\n    }\n\n    /*--------------------------------\n            MESSAGE SECTION\n    --------------------------------*/\n\n    mapping(address => Message[5]) messagesSend;\n    mapping(address => Message[5]) messagesReceived;\n\n    mapping(address => uint256) messagesSendCounter;\n    mapping(address => uint256) messagesReceivedCounter;\n\n    struct Message {\n        address sender;\n        address receiver;\n        string message;\n        uint256 time;\n    }\n\n    function sendMessage(string memory _message, address _address) public {\n        require(bytes(_message).length > 0);\n        require(_address != msg.sender);\n\n        Message memory message = Message(\n            msg.sender,\n            _address,\n            _message,\n            getCurrentTime()\n        );\n\n        messagesSend[msg.sender][messagesSendCounter[msg.sender] % 5] = message;\n        messagesSendCounter[msg.sender] += 1;\n\n        messagesReceived[_address][messagesReceivedCounter[_address] %\n            5] = message;\n        messagesReceivedCounter[_address] += 1;\n    }\n\n    function getSendMessages(uint256 _position)\n        public\n        view\n        returns (\n            address,\n            string memory,\n            uint256\n        )\n    {\n        require(_position >= 0 && _position <= 5);\n        return (\n            messagesSend[msg.sender][_position].receiver,\n            messagesSend[msg.sender][_position].message,\n            messagesSend[msg.sender][_position].time\n        );\n    }\n\n    function getReceivedMessages(uint256 _position)\n        public\n        view\n        returns (\n            address,\n            string memory,\n            uint256\n        )\n    {\n        require(_position >= 0 && _position <= 5);\n        return (\n            messagesReceived[msg.sender][_position].sender,\n            messagesReceived[msg.sender][_position].message,\n            messagesReceived[msg.sender][_position].time\n        );\n    }\n\n    /*--------------------------------\n            FREEZE CONTRACT\n    --------------------------------*/\n\n    mapping(address => uint256) freezeContractEnd;\n\n    function getOwnFreezeContractEnd() public view returns (uint256) {\n        return freezeContractEnd[msg.sender];\n    }\n\n    function freezeContract(uint256 _timeToFreeze) public {\n        require(balances[msg.sender] > 0);\n        freezeContractEnd[msg.sender] = now + _timeToFreeze;\n    }\n\n    /*\n    HELPER FUNCTIONS\n    */\n\n    function getCurrentTime() public view returns (uint256) {\n        return now;\n    }\n}\n",
  "sourcePath": "/home/drogo/Desktop/gitProjects/programmableMoney/contracts/Bank.sol",
  "compiler": {
    "name": "solc",
    "version": "0.5.16+commit.9c3226ce.Emscripten.clang"
  },
  "schemaVersion": "3.2.1",
  "updatedAt": "2020-07-24T10:50:53.045Z",
  "devdoc": {
    "methods": {}
  },
  "userdoc": {
    "methods": {}
  }
}