{
  "contractName": "Bank",
  "abi": [
    {
      "constant": false,
      "inputs": [],
      "name": "deposit",
      "outputs": [],
      "payable": true,
      "stateMutability": "payable",
      "type": "function"
    },
    {
      "constant": false,
      "inputs": [],
      "name": "withdraw",
      "outputs": [],
      "payable": false,
      "stateMutability": "nonpayable",
      "type": "function"
    },
    {
      "constant": false,
      "inputs": [
        {
          "internalType": "uint256",
          "name": "_amount",
          "type": "uint256"
        },
        {
          "internalType": "address",
          "name": "_address",
          "type": "address"
        }
      ],
      "name": "sendMoney",
      "outputs": [],
      "payable": false,
      "stateMutability": "nonpayable",
      "type": "function"
    },
    {
      "constant": false,
      "inputs": [
        {
          "internalType": "uint256",
          "name": "_timeToFreeze",
          "type": "uint256"
        }
      ],
      "name": "freezeMoney",
      "outputs": [],
      "payable": false,
      "stateMutability": "nonpayable",
      "type": "function"
    },
    {
      "constant": false,
      "inputs": [
        {
          "internalType": "string",
          "name": "_message",
          "type": "string"
        },
        {
          "internalType": "address",
          "name": "_address",
          "type": "address"
        }
      ],
      "name": "sendMessage",
      "outputs": [],
      "payable": false,
      "stateMutability": "nonpayable",
      "type": "function"
    },
    {
      "constant": true,
      "inputs": [],
      "name": "getOwnBalance",
      "outputs": [
        {
          "internalType": "uint256",
          "name": "",
          "type": "uint256"
        }
      ],
      "payable": false,
      "stateMutability": "view",
      "type": "function"
    },
    {
      "constant": true,
      "inputs": [],
      "name": "getOwnFreezeEnd",
      "outputs": [
        {
          "internalType": "uint256",
          "name": "",
          "type": "uint256"
        }
      ],
      "payable": false,
      "stateMutability": "view",
      "type": "function"
    },
    {
      "constant": true,
      "inputs": [],
      "name": "getCurrentTime",
      "outputs": [
        {
          "internalType": "uint256",
          "name": "",
          "type": "uint256"
        }
      ],
      "payable": false,
      "stateMutability": "view",
      "type": "function"
    },
    {
      "constant": true,
      "inputs": [
        {
          "internalType": "address",
          "name": "_address",
          "type": "address"
        }
      ],
      "name": "getMessage",
      "outputs": [
        {
          "internalType": "string",
          "name": "",
          "type": "string"
        }
      ],
      "payable": false,
      "stateMutability": "view",
      "type": "function"
    }
  ],
  "bytecode": "0x608060405234801561001057600080fd5b50610916806100206000396000f3fe6080604052600436106100865760003560e01c806355448fe11161005957806355448fe1146101635780637130474e1461022d578063aa0465a514610258578063c48d6d5e14610283578063d0e30db01461036b57610086565b8063062a75441461008b57806329cb924d146100e65780632e89ef80146101115780633ccfd60b1461014c575b600080fd5b34801561009757600080fd5b506100e4600480360360408110156100ae57600080fd5b8101908080359060200190929190803573ffffffffffffffffffffffffffffffffffffffff169060200190929190505050610375565b005b3480156100f257600080fd5b506100fb61045b565b6040518082815260200191505060405180910390f35b34801561011d57600080fd5b5061014a6004803603602081101561013457600080fd5b8101908080359060200190929190505050610463565b005b34801561015857600080fd5b506101616104ac565b005b34801561016f57600080fd5b506101b26004803603602081101561018657600080fd5b81019080803573ffffffffffffffffffffffffffffffffffffffff16906020019092919050505061060d565b6040518080602001828103825283818151815260200191508051906020019080838360005b838110156101f25780820151818401526020810190506101d7565b50505050905090810190601f16801561021f5780820380516001836020036101000a031916815260200191505b509250505060405180910390f35b34801561023957600080fd5b506102426106ee565b6040518082815260200191505060405180910390f35b34801561026457600080fd5b5061026d610734565b6040518082815260200191505060405180910390f35b34801561028f57600080fd5b50610369600480360360408110156102a657600080fd5b81019080803590602001906401000000008111156102c357600080fd5b8201836020820111156102d557600080fd5b803590602001918460018302840111640100000000831117156102f757600080fd5b91908080601f016020809104026020016040519081016040528093929190818152602001838380828437600081840152601f19601f820116905080830192505050505050509192919290803573ffffffffffffffffffffffffffffffffffffffff16906020019092919050505061077b565b005b6103736107e1565b005b816000803373ffffffffffffffffffffffffffffffffffffffff1673ffffffffffffffffffffffffffffffffffffffff16815260200190815260200160002054116103bf57600080fd5b816000803373ffffffffffffffffffffffffffffffffffffffff1673ffffffffffffffffffffffffffffffffffffffff16815260200190815260200160002060008282540392505081905550816000808373ffffffffffffffffffffffffffffffffffffffff1673ffffffffffffffffffffffffffffffffffffffff168152602001908152602001600020600082825401925050819055505050565b600042905090565b804201600160003373ffffffffffffffffffffffffffffffffffffffff1673ffffffffffffffffffffffffffffffffffffffff1681526020019081526020016000208190555050565b60008060003373ffffffffffffffffffffffffffffffffffffffff1673ffffffffffffffffffffffffffffffffffffffff16815260200190815260200160002054116104f757600080fd5b42600160003373ffffffffffffffffffffffffffffffffffffffff1673ffffffffffffffffffffffffffffffffffffffff168152602001908152602001600020541061054257600080fd5b3373ffffffffffffffffffffffffffffffffffffffff166108fc6000803373ffffffffffffffffffffffffffffffffffffffff1673ffffffffffffffffffffffffffffffffffffffff168152602001908152602001600020549081150290604051600060405180830381858888f193505050501580156105c6573d6000803e3d6000fd5b5060008060003373ffffffffffffffffffffffffffffffffffffffff1673ffffffffffffffffffffffffffffffffffffffff16815260200190815260200160002081905550565b6060600260008373ffffffffffffffffffffffffffffffffffffffff1673ffffffffffffffffffffffffffffffffffffffff1681526020019081526020016000208054600181600116156101000203166002900480601f0160208091040260200160405190810160405280929190818152602001828054600181600116156101000203166002900480156106e25780601f106106b7576101008083540402835291602001916106e2565b820191906000526020600020905b8154815290600101906020018083116106c557829003601f168201915b50505050509050919050565b60008060003373ffffffffffffffffffffffffffffffffffffffff1673ffffffffffffffffffffffffffffffffffffffff16815260200190815260200160002054905090565b6000600160003373ffffffffffffffffffffffffffffffffffffffff1673ffffffffffffffffffffffffffffffffffffffff16815260200190815260200160002054905090565b600082511161078957600080fd5b81600260008373ffffffffffffffffffffffffffffffffffffffff1673ffffffffffffffffffffffffffffffffffffffff16815260200190815260200160002090805190602001906107dc92919061083c565b505050565b600034116107ee57600080fd5b346000803373ffffffffffffffffffffffffffffffffffffffff1673ffffffffffffffffffffffffffffffffffffffff16815260200190815260200160002060008282540192505081905550565b828054600181600116156101000203166002900490600052602060002090601f016020900481019282601f1061087d57805160ff19168380011785556108ab565b828001600101855582156108ab579182015b828111156108aa57825182559160200191906001019061088f565b5b5090506108b891906108bc565b5090565b6108de91905b808211156108da5760008160009055506001016108c2565b5090565b9056fea265627a7a723158208d02b3e16dd1863884e314b8ea35e847798e1af139dcfaf219c218add7ae1ff064736f6c63430005100032",
  "source": "pragma solidity >=0.4.21 <0.7.0;\r\n\r\ncontract Bank {\r\n    mapping(address => uint256) balances;\r\n    mapping(address => uint256) freezeEnd;\r\n    mapping(address => string) messages;\r\n    \r\n    //@author Daniel Niemczyk\r\n    function deposit()public payable{\r\n    \trequire(msg.value>0);\r\n        balances[msg.sender]+=msg.value;\r\n    }\r\n\r\n    //@author Daniel Niemczyk\r\n    function withdraw() public{\r\n        require(balances[msg.sender] > 0);\r\n        require(freezeEnd[msg.sender] < now);\r\n        msg.sender.transfer(balances[msg.sender]);\r\n        balances[msg.sender]=0;\r\n    }\r\n    \r\n    //@author Daniel Niemczyk\r\n    function sendMoney(uint _amount, address _address) public {\r\n        require(balances[msg.sender] > _amount);\r\n        balances[msg.sender] -= _amount;\r\n        balances[_address] += _amount;\r\n    }\r\n\r\n    //@author Daniel Niemczyk\r\n    function freezeMoney(uint _timeToFreeze) public {\r\n        //require(balances[msg.sender]>0);\r\n        freezeEnd[msg.sender]= now + _timeToFreeze;\r\n    }\r\n\r\n    //@author Leon Bruckert\r\n    function sendMessage(string memory _message, address _address) public {\r\n        require(bytes(_message).length>0);\r\n        messages[_address]=_message;\r\n    }\r\n\r\n    /*\r\n    READ-ONLY(view) functions --------------------------------------------------\r\n    */\r\n    \r\n    //@author Daniel Niemczyk\r\n    function getOwnBalance() public view returns (uint256) {\r\n        return balances[msg.sender];\r\n    }\r\n    \r\n    //@author Daniel Niemczyk\r\n    function getOwnFreezeEnd() public view returns (uint256) {\r\n        return freezeEnd[msg.sender];\r\n    }\r\n    \r\n    //@author Daniel Niemczyk\r\n    function getCurrentTime() public view returns (uint256) {\r\n        return now;\r\n    }\r\n    \r\n    //@author Leon Bruckert\r\n    function getMessage(address _address) public view returns (string memory) {\r\n        return messages[_address];\r\n    }\r\n\r\n}",
  "sourcePath": "D:\\03_Development\\04_FHWS\\02_BlockChain\\contracts\\Bank.sol",
  "compiler": {
    "name": "solc",
    "version": "0.5.16+commit.9c3226ce.Emscripten.clang"
  },
  "schemaVersion": "3.2.0",
  "updatedAt": "2020-06-14T22:11:20.909Z",
  "networkType": "ethereum",
  "devdoc": {
    "methods": {}
  },
  "userdoc": {
    "methods": {}
  }
}